:100000000C9476000C9495000C9495000C9495003B
:100010000C9495000C9495000C9495000C9495000C
:100020000C9495000C9495000C9495000C949500FC
:100030000C9495000C9495000C9495000C949500EC
:100040000C94CA000C9495000C9495000C949500A7
:100050000C9495000C9495000C9495000C949500CC
:100060000C9495000C9495000C9495000C949500BC
:100070000C9495000C9495000C9495000C949500AC
:100080000C9495000C9495000C94950048454C4CAC
:100090004F20574F524C440D0A00256C75200030FC
:1000A00031323334353637383941424344454600DE
:1000B00064656275673A2000303132333435363743
:1000C000383941424344454600636F6E6669675F55
:1000D000696E69742E2E2E0D0A00696E7075743D5E
:1000E00025630D0A006D61696E3A200011241FBE60
:1000F000CFEFD0E4DEBFCDBF11E0A0E0B1E0E0E2A1
:10010000F7E100E00BBF02C007900D92A831B107E4
:10011000D9F724E0A8E1B1E001C01D92A735B207EC
:10012000E1F70E94A2060C948E0B0C94000084B59B
:10013000826084BD8DE787BD85B5836085BD82E023
:1001400080936E000895609126037091270380913B
:1001500028039091290308950F931F93009126037C
:10016000109127032091280330912903600F711FFC
:10017000821F931F009126031091270320912803CB
:1001800030912903601771078207930798F71F9131
:100190000F9108951F920F920FB60F9211248F9313
:1001A0009F93AF93BF938091260390912703A091D3
:1001B0002803B09129030196A11DB11D8093260348
:1001C00090932703A0932803B0932903BF91AF9185
:1001D0009F918F910F900FBE0F901F901895809157
:1001E000260390912703A0912803B091290301963B
:1001F000A11DB11D8093260390932703A09328038C
:10020000B0932903089510922A031092310310929B
:10021000300310922F0310922B0310922C03109294
:100220002D0310922E031092380310923703109270
:10023000360310923203109233031092340310925B
:1002400035030895089508951092C50023E320937F
:10025000C400E1ECF0E02081206820832081286147
:100260002083E2ECF0E020812660208390933C0321
:1002700080933B0360E070E08CE891E00C943D08D3
:100280001F920F920FB60F9211240BB60F922F935D
:100290003F934F935F936F937F938F939F93AF930E
:1002A000BF93EF93FF938091C600E0913B03F091E1
:1002B0003C03309709F00995FF91EF91BF91AF9101
:1002C0009F918F917F916F915F914F913F912F916E
:1002D0000F900BBE0F900FBE0F901F90189590932C
:1002E0003C0380933B03089590933A038093390332
:1002F0000895FC018191882339F09091C00095FF09
:10030000FCCF8093C600F6CF08959091C00095FF72
:10031000FCCF8093C6000895CF93C82F0E9485011B
:10032000E0913903F0913A03309711F08C2F099541
:1003300080E090E0CF910895E82FE295EF70F0E033
:10034000E156FF4FE4919091C00095FFFCCFE09300
:10035000C6008F70E82FF0E0E156FF4FE4918091E6
:10036000C00085FFFCCFE093C6000895EF92FF9296
:100370000F931F93CF93DF938C017B01EC01CE0190
:10038000801B910B8E159F053CF489910E949C0166
:1003900080E20E948501F3CF8DE00E9485018AE012
:1003A000DF91CF911F910F91FF90EF900C948501F9
:1003B0000F931F93CF93DF93CDB7DEB70F811885CF
:1003C00001151105D9F08091260390912703A09182
:1003D0002803B0912903BF93AF939F938F938AE92A
:1003E00090E09F938F930E9488081F930F930E9421
:1003F00088080FB6F894DEBF0FBECDBFAE01455FD3
:100400005F4F69857A8580915304909154040E94CE
:10041000AC08DF91CF911F910F9108958CE890E087
:100420009F938F9380EB90E09F938F930E94D801CE
:100430000F900F900F900F9093E48091C00085FD76
:1004400003C09093C600F9CF2FEF84E39CE02150C6
:1004500080409040E1F700C0000080E58093C60036
:100460002FEF84E39CE0215080409040E1F700C0F2
:10047000000088E48093C6002FEF84E39CE02150C5
:1004800080409040E1F700C00000089590933E0343
:1004900080933D0308951092C5002CE02093C40082
:1004A000E1ECF0E02081286820832081286120830E
:1004B000E2ECF0E020812660208390933E0380935D
:1004C0003D03089540911803509119039A012F5F3D
:1004D0003F4F317060911A0370911B032617370745
:1004E00041F0FA01E85EFE4F8083309319032093B8
:1004F0001803089584E092E0E8E1F1E0DF019C0157
:100500001D9221503040E1F7089580911803909199
:100510001A03891B089520911A0330911B038091BF
:100520001803909119038217930761F0F901E85EAF
:10053000FE4F80812F5F3F4F317030931B0320931C
:100540001A0308958FEF08959091C00095FFFCCF96
:100550008093C6000895FC019F01281B390B2617C4
:10056000370744F42091C00025FFFCCF2191209350
:10057000C600F2CF0895FC018191882339F0909153
:10058000C00095FFFCCF8093C600F6CF08951F9260
:100590000F920FB60F9211240BB60F922F933F9329
:1005A0004F935F936F937F938F939F93AF93BF937B
:1005B000EF93FF938091C6000E946202FF91EF913A
:1005C000BF91AF919F918F917F916F915F914F916B
:1005D0003F912F910F900BBE0F900FBE0F901F9069
:1005E0001895FC01158214821782168213821282DA
:1005F00011861086138612860895FC01718360832C
:100600000C94F102CF92DF92EF92FF921F93CF935F
:10061000DF9300D000D0CDB7DEB77C01DC012D9197
:100620003C9111972115310559F01A968D919C91A5
:100630001B970A96840F951F2817390708F465C081
:10064000CA0106964B835C8369837A830E94D8062D
:100650004B815C8169817A81009709F458C0F70168
:1006600024813581232B69F4958384839783868342
:1006700021E030E03383228351874087E0E0F0E0DF
:100680001EC0D7010680F781E02D938382831796E1
:100690009C938E93169712962D913C9113972F5FF2
:1006A0003F4F13963C932E93129718962D913C91A1
:1006B0001997240F351F19963C932E931897D7013D
:1006C0001296CD90DC9013971AE01C9D90011D9D11
:1006D000300D11241896CD90DC9019972C0D3D1DEE
:1006E0001B963C932E931A97DC011196FC93EE9384
:1006F00013961C921E92129715965C934E93149724
:1007000006960E940C088FEF03C082E001C081E0D2
:100710000F900F900F900F90DF91CF911F91FF904E
:10072000EF90DF90CF900895CF92DF92EF92FF92FB
:100730000F931F93CF93DF93EC017B010C811D81FD
:100740000115110509F44BC0D8011496CD90DC9029
:100750001597C6010E94D806F70191838083EF2880
:1007600009F43FC0A601B8016A5F7F4F0E940C08E0
:10077000D8011296ED91FC911397309749F41D82A0
:100780001C821F821E821B821A821986188614C040
:10079000FD83EC838A819B8101979B838A83888573
:1007A0009985D80114962D913C911597821B930B36
:1007B00099878887118210822A813B814AE0429F73
:1007C000C001439F900D112428853985820F931F06
:1007D0009B878A87C8010E9470078FEF03C083E060
:1007E00001C081E0DF91CF911F910F91FF90EF90B9
:1007F000DF90CF900895CF92DF92EF92FF920F9308
:100800001F93CF93DF937B016A018901FC01228151
:100810003381232B29F4F8011182108283E017C061
:10082000FC01C481D581209789F0A601B701CE01D2
:1008300006960E94FF07811105C0F801D183C0838D
:100840008FEF05C00A80DB81C02DEDCF84E0DF9102
:10085000CF911F910F91FF90EF90DF90CF9008956F
:10086000CF93DF93EC01CB012A813B812115310528
:1008700009F442C02130310531F40E947007CE01E5
:100880000E94F10237C0DB01ED91FC9111971296A5
:100890004D915C911397309719F05383428302C0B6
:1008A0005D834C83DC0112964D915C911397411549
:1008B000510521F0DA01ED93FC9302C0FF83EE8332
:1008C000B901615071097B836A8328853985FC01F0
:1008D00044815581241B350B39872887EAE0E69F40
:1008E000A001E79F500D1124420F531F5B874A87D9
:1008F0000E9470078FEF01C083E0DF91CF910895D0
:10090000DC011496ED91FC911597309739F08481B4
:100910009581FB01918380838FEF089583E0089593
:100920000F931F93CF93DF93EC01EC81FD81309700
:1009300039F002811381CF010E947007F801F7CFCF
:10094000CE010E94F1028FEFDF91CF911F910F91A5
:1009500008950C94B60A0C94BE0A559A54980C94B7
:10096000E2045D98089589B1807108950E94FB04A6
:100970008091410390914203892B51F06091430390
:10098000709144036A5F7F4F8FE393E00C943004CF
:1009900008954DE050E0BC018FE393E00C94020316
:1009A0009FEB980F963008F48062E6E0F1E090E06B
:1009B0002191281729F09F5F9031D1F780E80895A1
:1009C000892F089560E070E28FE393E00E94FD02BA
:1009D00010921D0310921C0381E8ECECF3E0DF01A0
:1009E000982F1D929A95E9F7EBE4F3E0DF011D9251
:1009F0008A95E9F708959F92AF92BF92CF92DF92C6
:100A0000EF92FF920F931F93CF93DF93CDB7DEB793
:100A1000A6970FB6F894DEBF0FBECDBF0E94850229
:100A2000882309F432C10E948B02882309F42DC166
:100A300020911C0330911D03203831050CF025C195
:100A4000F901E453FC4F80832F5F3F4F30931D0328
:100A500020931C038A3009F018C16CEC73E08BE41E
:100A600093E00E941C0810921D0310921C0381E861
:100A7000ECECF3E0DF011D928A95E9F76AE270E0A1
:100A80008BE493E00E942308892B09F0FEC04DE01F
:100A900050E060E370E0CE0101960E94150880915D
:100AA0001B000E94D004182F80911C000E94D004CB
:100AB00090E0E0E0F0E021919227EB31F105D9F7E9
:100AC000B0E11B9F90011124282B2913BEC01AA24C
:100AD00019A2809101000E94D004182F8091020079
:100AE0000E94D00440E1149F90011124182F122B72
:100AF00018A3809103000E94D004082F8091040065
:100B00000E94D00490E1099F90011124082F022B2C
:100B10000F8F809105000E94D004F82E809106006E
:100B20000E94D004A0E1FA9E90011124F82EF22A2E
:100B3000FE8E809107000E94D004E82E809108006C
:100B40000E94D004B0E1EB9E90011124E82EE22A2D
:100B5000ED8E809109000E94D004D82E80910A0069
:100B60000E94D00440E1D49E90011124D82ED22AB4
:100B7000DC8E80910B000E94D004C82E80910C0066
:100B80000E94D00490E1C99E90011124C82EC22A6F
:100B9000CB8E80910E000E94D004A82E80910F0071
:100BA0000E94D004B82E809111000E94D004982E8B
:100BB000809112000E94D004A0E19A9E900111241D
:100BC000822B8BA3809113000E94D004982E8091D9
:100BD00014000E94D004B0E19B9E90011124822B4E
:100BE0008CA3809116000E94D004982E809117004B
:100BF0000E94D00440E1949E90011124822B8DA389
:100C0000809118000E94D004982E809119000E94B3
:100C1000D00490E1999E90011124822B8EA3A0E133
:100C2000AA9EA00111244B294983CA82DB82EC824F
:100C3000FD820E831F83188619868DA19EA19B8736
:100C40008A878BA19CA19D878C878DE0FE013196C0
:100C5000DE011E9601900D928A95E1F72F85388965
:100C600049895A896B897C898D899E89A0E00E9477
:100C7000CC0621F0CE010E960E94C90481E8EBE477
:100C8000F3E0DF011D928A95E9F7A6960FB6F89476
:100C9000DEBF0FBECDBFDF91CF911F910F91FF90AF
:100CA000EF90DF90CF90BF90AF909F90089580938A
:100CB00025031F928F938AED90E09F938F9385EE8B
:100CC00090E09F938F930E94D8010F900F900F9008
:100CD0000F900F900F900895CF92DF92EF92FF92B6
:100CE0006B017C010E94A3006C0D7D1D8E1D9F1D5C
:100CF0006093210370932203809323039093240332
:100D0000FF90EF90DF90CF9008950F931F930E9474
:100D1000A30000912103109122032091230330911D
:100D20002403601771078207930740F068EE73E0B1
:100D300080E090E00E946C0681E001C080E01F919D
:100D40000F91089587E596E00E94240187E596E0DB
:100D50000E944B020E94970089EC90E09F938F9332
:100D600085EE90E09F938F930E94D8010E9403012B
:100D70000E94AD0478940F900F900F900F900E94F6
:100D800085068823E1F30E94B60468EE73E080E0F4
:100D900090E00E946C06F3CF0024A7FD00942A1770
:100DA00030054005500560057005800590050895E3
:100DB000CF93DF938230910510F482E090E0E091D0
:100DC0004F04F091500420E030E0A0E0B0E0309714
:100DD00039F14081518148175907B8F04817590730
:100DE00071F482819381109729F013969C938E93CE
:100DF00012972CC09093500480934F0427C0211564
:100E0000310531F04217530718F0A901DB0101C089
:100E1000EF019A01BD01DF010280F381E02DD7CF00
:100E200021153105F9F0281B390B2430310580F4E8
:100E30008A819B816115710521F0FB019383828377
:100E400004C09093500480934F04FE01329644C036
:100E5000FE01E20FF31F81939193225031093983F0
:100E600028833AC020914D0430914E04232B41F445
:100E7000209102013091030130934E0420934D04E0
:100E800020910001309101012115310541F42DB768
:100E90003EB74091040150910501241B350BE091B0
:100EA0004D04F0914E04E217F307A0F42E1B3F0B04
:100EB0002817390778F0AC014E5F5F4F24173507CC
:100EC00048F04E0F5F1F50934E0440934D048193A2
:100ED000919302C0E0E0F0E0CF01DF91CF9108955F
:100EE000CF93DF93009709F487C0FC0132971382F8
:100EF0001282C0914F04D0915004209781F4208138
:100F00003181280F391F80914D0490914E04821732
:100F1000930779F5F0934E04E0934D046DC0DE0124
:100F200020E030E0AE17BF0750F412964D915C916F
:100F300013979D014115510509F1DA01F3CFB383F0
:100F4000A28340815181840F951F8A179B0771F4FA
:100F50008D919C911197840F951F029691838083A8
:100F600012968D919C91139793838283211531055D
:100F700029F4F0935004E0934F043EC0D901139636
:100F8000FC93EE9312974D915D91A40FB51FEA1754
:100F9000FB0779F480819181840F951F0296D90116
:100FA00011969C938E938281938113969C938E933A
:100FB0001297E0E0F0E08A819B81009719F0FE0132
:100FC000EC01F9CFCE01029628813981820F931F5F
:100FD00020914D0430914E042817390769F4309759
:100FE00029F41092500410924F0402C0138212820E
:100FF000D0934E04C0934D04DF91CF910895FB012F
:10100000DC0104C08D910190801921F441505040C1
:10101000C8F7881B990B0895FB01DC0102C0019001
:101020000D9241505040D8F70895DC0101C06D93F6
:1010300041505040E0F70895FB01DC0101900D9212
:101040000020E1F70895FB0151915523A9F0BF015C
:10105000DC014D9145174111E1F759F4CD010190A3
:10106000002049F04D9140154111C9F3FB01411198
:10107000EFCF81E090E0019708950F931F93CF93F6
:10108000DF93EC018B01009731F46115710519F4C0
:1010900080E090E038C06EE070E081E090E00E9477
:1010A000CC0AFC010097A1F380E8838301151105A8
:1010B00071F01387028781E88383809151049091B6
:1010C0005204892B21F4F0935204E09351042097A9
:1010D000C9F0D187C0878381826083838091530464
:1010E00090915404892B71F4F0935404E0935304C9
:1010F0008091550490915604892B21F4F093560465
:10110000E0935504CF01DF91CF911F910F91089586
:101110000F931F93CF93DF93CDB7DEB7FE013796C2
:101120006191719103E514E0D8018D919C91DC01EE
:1011300013962C911397286013962C93AF010E945D
:10114000BB08D801ED91FC912381277F2383DF9198
:10115000CF911F910F910895CF93DF93EC018B8175
:1011600088608B83CE010E94BB082B81277F2B8355
:10117000DF91CF9108952F923F924F925F926F929D
:101180007F928F929F92AF92BF92CF92DF92EF9217
:10119000FF920F931F93CF93DF93CDB7DEB72C97BA
:1011A0000FB6F894DEBF0FBECDBF7C016B018A0184
:1011B000FC0117821682838181FFBDC1CE01019699
:1011C0004C01F7019381F60193FD859193FF819185
:1011D0006F01882309F4ABC1853239F493FD859101
:1011E00093FF81916F01853229F4B70190E00E944D
:1011F000FE0AE7CF512C312C20E02032A0F48B32B4
:1012000069F030F4803259F0833269F420612CC0E7
:101210008D3239F0803339F4216026C02260246099
:1012200023C0286021C027FD27C030ED380F3A3099
:1012300078F426FF06C0FAE05F9E300D1124532E8D
:1012400013C08AE0389E300D1124332E20620CC06A
:101250008E3221F426FD6BC1206406C08C3611F459
:10126000206802C0883641F4F60193FD859193FF12
:1012700081916F018111C1CF982F9F7D955493303B
:1012800028F40C5F1F4FFFE3F9830DC0833631F064
:10129000833771F0833509F05BC022C0F80180818B
:1012A00089830E5F1F4F44244394512C540115C071
:1012B0003801F2E06F0E711CF801A080B18026FFAA
:1012C00003C0652D70E002C06FEF7FEFC5012C8772
:1012D0000E94F30A2C0183012C852F77222E17C040
:1012E0003801F2E06F0E711CF801A080B18026FF7A
:1012F00003C0652D70E002C06FEF7FEFC5012C8742
:101300000E94E80A2C012C852068222E830123FCF0
:101310001BC0832D90E048165906B0F4B70180E257
:1013200090E00E94FE0A3A94F4CFF50127FC8591E3
:1013300027FE81915F01B70190E00E94FE0A311003
:101340003A94F1E04F1A51084114510471F7E5C085
:10135000843611F0893639F5F80127FF07C060811E
:101360007181828193810C5F1F4F08C06081718100
:10137000882777FD8095982F0E5F1F4F2F76B22E0E
:1013800097FF09C090958095709561957F4F8F4F1D
:101390009F4F2068B22E2AE030E0A4010E94300B5B
:1013A000A82EA81844C0853729F42F7EB22E2AE033
:1013B00030E025C0F22FF97FBF2E8F36C1F018F430
:1013C000883579F0B4C0803719F0883721F0AFC084
:1013D0002F2F2061B22EB4FE0DC08B2D8460B82E4D
:1013E00009C024FF0AC09F2F9660B92E06C028E0CE
:1013F00030E005C020E130E002C020E132E0F80139
:10140000B7FE07C060817181828193810C5F1F4F9D
:1014100006C06081718180E090E00E5F1F4FA401E3
:101420000E94300BA82EA818FB2DFF77BF2EB6FE0A
:101430000BC02B2D2E7FA51450F4B4FE0AC0B2FCB5
:1014400008C02B2D2E7E05C07A2C2B2D03C07A2CA4
:1014500001C0752C24FF0DC0FE01EA0DF11D808135
:10146000803311F4297E09C022FF06C0739473945F
:1014700004C0822F867809F0739423FD13C020FFE7
:1014800006C05A2C731418F4530C5718732C731489
:1014900068F4B70180E290E02C870E94FE0A739402
:1014A0002C85F5CF731410F4371801C0312C24FFAC
:1014B00012C0B70180E390E02C870E94FE0A2C85C1
:1014C00022FF17C021FF03C088E590E002C088E733
:1014D00090E0B7010CC0822F867859F021FD02C040
:1014E00080E201C08BE227FD8DE2B70190E00E940F
:1014F000FE0AA51438F4B70180E390E00E94FE0ACA
:101500005A94F7CFAA94F401EA0DF11D8081B70136
:1015100090E00E94FE0AA110F5CF332009F451CECD
:10152000B70180E290E00E94FE0A3A94F6CFF701FC
:101530008681978102C08FEF9FEF2C960FB6F894AB
:10154000DEBF0FBECDBFDF91CF911F910F91FF90F6
:10155000EF90DF90CF90BF90AF909F908F907F9053
:101560006F905F904F903F902F900895F999FECF24
:1015700092BD81BDF89A992780B50895262FF999D3
:10158000FECF1FBA92BD81BD20BD0FB6F894FA9A66
:10159000F99A0FBE019608950F931F93CF93DF938F
:1015A000869F8001879F100D969F100D1124C80102
:1015B0000E94D806EC01009729F0A80160E070E0D5
:1015C0000E941508CE01DF91CF911F910F910895D0
:1015D000FC010590615070400110D8F780959095FE
:1015E0008E0F9F1F0895FC01615070400190011003
:1015F000D8F7809590958E0F9F1F08950F931F9396
:10160000CF93DF93182F092FEB018B8181FD03C04E
:101610008FEF9FEF20C082FF10C04E815F812C8131
:101620003D81421753077CF4E881F9819F012F5FC8
:101630003F4F39832883108306C0E885F985812FC1
:101640000995892B29F72E813F812F5F3F4F3F83DB
:101650002E83812F902FDF91CF911F910F910895AD
:10166000FA01AA27283051F1203181F1E8946F93D3
:101670006E7F6E5F7F4F8F4F9F4FAF4FB1E03ED079
:10168000B4E03CD0670F781F891F9A1FA11D680F17
:10169000791F8A1F911DA11D6A0F711D811D911D4A
:1016A000A11D20D009F468943F912AE0269F1124BF
:1016B0003019305D3193DEF6CF010895462F477023
:1016C000405D4193B3E00FD0C9F7F6CF462F4F707E
:1016D000405D4A3318F0495D31FD4052419302D0DC
:1016E000A9F7EACFB4E0A695979587957795679582
:1016F000BA95C9F700976105710508959B01AC0182
:101700000A2E06945795479537952795BA95C9F7A8
:10171000620F731F841F951FA01D0895F894FFCFBB
:101720000000570420003031323334353637383931
:0817300061626364656600005C
:00000001FF
